1AIRLINE STANDARD SCHEDULE DATA SET                                                                                                                                                            001000001
00000000000000000000000000000000000000000000000000000000000000000000000000000000000000000000000000000000000000000000000000000000000000000000000000000000000000000000000000000000000000000000000000000000
00000000000000000000000000000000000000000000000000000000000000000000000000000000000000000000000000000000000000000000000000000000000000000000000000000000000000000000000000000000000000000000000000000000
00000000000000000000000000000000000000000000000000000000000000000000000000000000000000000000000000000000000000000000000000000000000000000000000000000000000000000000000000000000000000000000000000000000
00000000000000000000000000000000000000000000000000000000000000000000000000000000000000000000000000000000000000000000000000000000000000000000000000000000000000000000000000000000000000000000000000000000
2UVJ          26OCT2528MAR2616FEB26 Vietjet Air                        C AIMS                                                                                                                 0319000002
00000000000000000000000000000000000000000000000000000000000000000000000000000000000000000000000000000000000000000000000000000000000000000000000000000000000000000000000000000000000000000000000000000000
00000000000000000000000000000000000000000000000000000000000000000000000000000000000000000000000000000000000000000000000000000000000000000000000000000000000000000000000000000000000000000000000000000000
00000000000000000000000000000000000000000000000000000000000000000000000000000000000000000000000000000000000000000000000000000000000000000000000000000000000000000000000000000000000000000000000000000000
00000000000000000000000000000000000000000000000000000000000000000000000000000000000000000000000000000000000000000000000000000000000000000000000000000000000000000000000000000000000000000000000000000000
3 VJ   310101J26DEC2527MAR261   5   HAN01450145+0700  ALA08200820+0500  330                                                                                                 C12Y365               000003
3 VJ   320101J26DEC2527MAR261   5   PRG18301830+0100  ALA02100210+0500  330                                                                                                 C12Y365               000004
3 VJ   630101J24DEC2528MAR26  3  6  PQC07400740+0700  NQZ16051605+0500  330                                                                                                 C12Y365               000005
3 VJ   640101J24DEC2528MAR26  3  6  NQZ17401740+0500  PQC01400140+0700  330                                                                                                 C12Y365               000006
3 VJ   650101J26DEC2527MAR26 2  5   PQC08200820+0700  ALA16051605+0500  330                                                                                                 C12Y365               000007
3 VJ   660101J26DEC2527MAR26 2  5   ALA17401740+0500  PQC01050105+0700  330                                                                                                 C12Y365               000008
3 VJ   670101J25DEC2526MAR26   4  7 CXR05300530+0700  NQZ13551355+0500  330                                                                                                 C12Y365               000009
3 VJ   680101J25DEC2526MAR26   4  7 NQZ15251525+0500  CXR23252325+0700  330                                                                                                 C12Y365               000010
3 VJ   810101J24DEC2528MAR261234567 SGN04050405+0700  MEL12351235+1100  330                                                                                                 C12Y365               000011
3 VJ   820101J24DEC2527MAR261 345 7 MEL14301430+1100  SGN22552255+0700  330                                                                                                 C12Y365               000012
3 VJ   830101J24DEC2528MAR261 3456  SGN03400340+0700  BNE12101210+1000  330                                                                                                 C12Y365               000013
3 VJ   840101J24DEC2528MAR261 3456  BNE13401340+1000  SGN22052205+0700  330                                                                                                 C12Y365               000014
3 VJ   850101J24DEC2528MAR261234567 SGN12301230+0700  SYD21052105+1100  330                                                                                                 C12Y365               000015
3 VJ   860101J23DEC2527MAR2612  5   SYD00150015+1100  SGN08500850+0700  330                                                                                                 C12Y365               000016
3 VJ   860201J24DEC2528MAR26  3  6  SYD00150015+1100  SGN08500850+0700  330                                                                                                 C12Y365               000017
3 VJ   910101J24DEC2527MAR26  3 5 7 SGN16501650+0700  PER23452345+0800  321                                                                                                 Y230                  000018
3 VJ   920101J25DEC2528MAR261  4 6  PER00500050+0800  SGN07250725+0700  321                                                                                                 Y230                  000019
3 VJ  1200101J24DEC2528MAR261234567 SGN10051005+0700  HAN12151215+0700  321                                                                                                 Y230                  000020
3 VJ  1210101J24DEC2528MAR261234567 HAN23452345+0700  SGN01550155+0700  321                                                                                                 Y230                  000021
3 VJ  1220101J24DEC2528MAR261234567 SGN23152315+0700  HAN01250125+0700  321                                                                                                 Y230                  000022
3 VJ  1230101J24DEC2528MAR261234567 HAN01550155+0700  SGN04050405+0700  321                                                                                                 Y230                  000023
3 VJ  1240101J24DEC2528MAR261234567 SGN22402240+0700  HAN00500050+0700  330                                                                                                 C12Y365               000024
3 VJ  1250101J24DEC2528MAR261234567 HAN01400140+0700  SGN03500350+0700  330                                                                                                 C12Y365               000025
3 VJ  1260101J24DEC2528MAR261234567 SGN00200020+0700  HAN02300230+0700  321                                                                                                 Y230                  000026
3 VJ  1270101J24DEC2528MAR261234567 HAN03000300+0700  SGN05100510+0700  321                                                                                                 Y230                  000027
3 VJ  1280101J24DEC2525MAR26 23   7 SGN01150115+0700  HAN03250325+0700  330                                                                                                 C12Y365               000028
3 VJ  1280201J25DEC2526MAR26   4    SGN05150515+0700  HAN07250725+0700  330                                                                                                 C12Y365               000029
3 VJ  1280301J26DEC2527MAR261   5   SGN01100110+0700  HAN03200320+0700  320                                                                                                 Y180                  000030
3 VJ  1290101J24DEC2526MAR261234  7 HAN04300430+0700  SGN06400640+0700  330                                                                                                 C12Y365               000031
3 VJ  1300101J24DEC2526MAR261234  7 SGN07350735+0700  HAN09450945+0700  330                                                                                                 C12Y365               000032
3 VJ  1310101J24DEC2525MAR261 3   7 HAN10451045+0700  SGN12551255+0700  330                                                                                                 C12Y365               000033
3 VJ  1310201J25DEC2526MAR26   4    HAN08250825+0700  SGN10351035+0700  330                                                                                                 C12Y365               000034
3 VJ  1320101J24DEC2525MAR26  3   7 SGN13551355+0700  HAN16051605+0700  330                                                                                                 C12Y365               000035
3 VJ  1320201J25DEC2528MAR2612 456  SGN04100410+0700  HAN06200620+0700  320                                                                                                 Y180                  000036
3 VJ  1330101J24DEC2528MAR261 3  6  HAN04400440+0700  SGN06500650+0700  330                                                                                                 C12Y365               000037
3 VJ  1340101J24DEC2528MAR261 3  6  SGN07500750+0700  HAN10001000+0700  330                                                                                                 C12Y365               000038
3 VJ  1350101J24DEC2528MAR261 3  6  HAN11001100+0700  SGN13101310+0700  330                                                                                                 C12Y365               000039
3 VJ  1360101J24DEC2528MAR261234567 SGN01400140+0700  HAN03500350+0700  321                                                                                                 Y230                  000040
3 VJ  1370101J24DEC2528MAR261234567 HAN04200420+0700  SGN06300630+0700  321                                                                                                 Y230                  000041
3 VJ  1380101J24DEC2528MAR261 3  6  SGN14101410+0700  HAN16201620+0700  330                                                                                                 C12Y365               000042
3 VJ  1380201J25DEC2526MAR26   4  7 SGN06450645+0700  HAN08550855+0700  321                                                                                                 Y230                  000043
3 VJ  1390101J24DEC2525MAR26  3     HAN07200720+0700  SGN09300930+0700  330                                                                                                 C12Y365               000044
3 VJ  1390201J26DEC2527MAR261   5 7 HAN07500750+0700  SGN10001000+0700  320                                                                                                 Y180                  000045
3 VJ  1420101J24DEC2525MAR26  3     SGN06000600+0700  HAN08100810+0700  321                                                                                                 Y230                  000046
3 VJ  1420201J26DEC2528MAR2612  567 SGN03000300+0700  HAN05100510+0700  330                                                                                                 C12Y365               000047
3 VJ  1430101J26DEC2528MAR2612  567 HAN06350635+0700  SGN08450845+0700  330                                                                                                 C12Y365               000048
3 VJ  1440101J24DEC2528MAR261234567 SGN05000500+0700  HAN07100710+0700  330                                                                                                 C12Y365               000049
3 VJ  1450101J24DEC2528MAR261234567 HAN08550855+0700  SGN11051105+0700  330                                                                                                 C12Y365               000050
3 VJ  1460101J24DEC2528MAR261234567 SGN08200820+0700  HAN10301030+0700  321                                                                                                 Y230                  000051
3 VJ  1500101J24DEC2528MAR261234567 SGN10151015+0700  HAN12251225+0700  320                                                                                                 Y180                  000052
3 VJ  1540101J24DEC2527MAR26 23 5 7 SGN05300530+0700  HAN07400740+0700  321                                                                                                 Y230                  000053
3 VJ  1550101J24DEC2527MAR26 23 5 7 HAN08100810+0700  SGN10201020+0700  321                                                                                                 Y230                  000054
3 VJ  1560101J24DEC2528MAR261234567 SGN11401140+0700  HAN13501350+0700  321                                                                                                 Y230                  000055
3 VJ  1570101J24DEC2528MAR261234567 HAN14201420+0700  SGN16301630+0700  321                                                                                                 Y230                  000056
3 VJ  1580101J24DEC2528MAR261234567 HAN11301130+0700  SGN13401340+0700  320                                                                                                 Y180                  000057
3 VJ  1600101J24DEC2531DEC251 34567 SGN12051205+0700  HAN14151415+0700  321                                                                                                 Y230                  000058
3 VJ  1600201J30DEC2504JAN26 2 4 67 SGN12051205+0700  HAN14151415+0700  320                                                                                                 Y180                  000059
3 VJ  1600301J02JAN2609JAN2612345   SGN12051205+0700  HAN14151415+0700  321                                                                                                 Y230                  000060
3 VJ  1600401J10JAN2616JAN261 3 567 SGN12051205+0700  HAN14151415+0700  321                                                                                                 Y230                  000061
3 VJ  1600501J13JAN2618JAN26 2 4 67 SGN12051205+0700  HAN14151415+0700  320                                                                                                 Y180                  000062
3 VJ  1600601J19JAN2626JAN261234567 SGN12051205+0700  HAN14151415+0700  321                                                                                                 Y230                  000063
3 VJ  1600701J27JAN2601FEB26 2 4 67 SGN12051205+0700  HAN14151415+0700  320                                                                                                 Y180                  000064
3 VJ  1600801J28JAN2604FEB26123 5   SGN12051205+0700  HAN14151415+0700  321                                                                                                 Y230                  000065
3 VJ  1600901J05FEB2611FEB261 34567 SGN12051205+0700  HAN14151415+0700  321                                                                                                 Y230                  000066
3 VJ  1601001J10FEB2615FEB26 2 4 67 SGN12051205+0700  HAN14151415+0700  320                                                                                                 Y180                  000067
3 VJ  1601101J13FEB2620FEB2612345   SGN12051205+0700  HAN14151415+0700  321                                                                                                 Y230                  000068
3 VJ  1601201J21FEB2627FEB261 3 567 SGN12051205+0700  HAN14151415+0700  321                                                                                                 Y230                  000069
3 VJ  1601301J24FEB2601MAR26 2 4 67 SGN12051205+0700  HAN14151415+0700  320                                                                                                 Y180                  000070
3 VJ  1601401J02MAR2609MAR261234567 SGN12051205+0700  HAN14151415+0700  321                                                                                                 Y230                  000071
3 VJ  1601501J10MAR2615MAR26 2 4 67 SGN12051205+0700  HAN14151415+0700  320                                                                                                 Y180                  000072
3 VJ  1601601J11MAR2618MAR26123 5   SGN12051205+0700  HAN14151415+0700  321                                                                                                 Y230                  000073
3 VJ  1601701J19MAR2625MAR261 34567 SGN12051205+0700  HAN14151415+0700  321                                                                                                 Y230                  000074
3 VJ  1601801J24MAR2628MAR26 2 4 6  SGN12051205+0700  HAN14151415+0700  320                                                                                                 Y180                  000075
3 VJ  1601901J27MAR2627MAR26    5   SGN12051205+0700  HAN14151415+0700  321                                                                                                 Y230                  000076
3 VJ  1610101J24DEC2531DEC251 34567 HAN14451445+0700  SGN16551655+0700  321                                                                                                 Y230                  000077
3 VJ  1610201J30DEC2504JAN26 2 4 67 HAN14451445+0700  SGN16551655+0700  320                                                                                                 Y180                  000078
3 VJ  1610301J02JAN2609JAN2612345   HAN14451445+0700  SGN16551655+0700  321                                                                                                 Y230                  000079
3 VJ  1610401J10JAN2616JAN261 3 567 HAN14451445+0700  SGN16551655+0700  321                                                                                                 Y230                  000080
3 VJ  1610501J13JAN2618JAN26 2 4 67 HAN14451445+0700  SGN16551655+0700  320                                                                                                 Y180                  000081
3 VJ  1610601J19JAN2626JAN261234567 HAN14451445+0700  SGN16551655+0700  321                                                                                                 Y230                  000082
3 VJ  1610701J27JAN2601FEB26 2 4 67 HAN14451445+0700  SGN16551655+0700  320                                                                                                 Y180                  000083
3 VJ  1610801J28JAN2604FEB26123 5   HAN14451445+0700  SGN16551655+0700  321                                                                                                 Y230                  000084
3 VJ  1610901J05FEB2611FEB261 34567 HAN14451445+0700  SGN16551655+0700  321                                                                                                 Y230                  000085
3 VJ  1611001J10FEB2615FEB26 2 4 67 HAN14451445+0700  SGN16551655+0700  320                                                                                                 Y180                  000086
3 VJ  1611101J13FEB2620FEB2612345   HAN14451445+0700  SGN16551655+0700  321                                                                                                 Y230                  000087
3 VJ  1611201J21FEB2627FEB261 3 567 HAN14451445+0700  SGN16551655+0700  321                                                                                                 Y230                  000088
3 VJ  1611301J24FEB2601MAR26 2 4 67 HAN14451445+0700  SGN16551655+0700  320                                                                                                 Y180                  000089
3 VJ  1611401J02MAR2609MAR261234567 HAN14451445+0700  SGN16551655+0700  321                                                                                                 Y230                  000090
3 VJ  1611501J10MAR2615MAR26 2 4 67 HAN14451445+0700  SGN16551655+0700  320                                                                                                 Y180                  000091
3 VJ  1611601J11MAR2618MAR26123 5   HAN14451445+0700  SGN16551655+0700  321                                                                                                 Y230                  000092
3 VJ  1611701J19MAR2625MAR261 34567 HAN14451445+0700  SGN16551655+0700  321                                                                                                 Y230                  000093
3 VJ  1611801J24MAR2628MAR26 2 4 6  HAN14451445+0700  SGN16551655+0700  320                                                                                                 Y180                  000094
3 VJ  1611901J27MAR2627MAR26    5   HAN14451445+0700  SGN16551655+0700  321                                                                                                 Y230                  000095
3 VJ  1620101J24DEC2528MAR261234567 SGN16201620+0700  HAN18301830+0700  321                                                                                                 Y230                  000096
3 VJ  1630101J24DEC2528MAR261234567 HAN22002200+0700  SGN00100010+0700  321                                                                                                 Y230                  000097
3 VJ  1680101J24DEC2528MAR261234567 SGN12501250+0700  HAN15001500+0700  321                                                                                                 Y230                  000098
3 VJ  1690101J24DEC2528MAR261234567 HAN10101010+0700  SGN12201220+0700  321                                                                                                 Y230                  000099
3 VJ  1700101J24DEC2528MAR261234567 SGN14451445+0700  HAN16551655+0700  321                                                                                                 Y230                  000100
3 VJ  1710101J24DEC2528MAR261234567 HAN12051205+0700  SGN14151415+0700  321                                                                                                 Y230                  000101
3 VJ  1720101J24DEC2528MAR261234567 SGN12301230+0700  HAN14401440+0700  321                                                                                                 Y230                  000102
3 VJ  1730101J24DEC2528MAR261234567 HAN09200920+0700  SGN11301130+0700  321                                                                                                 Y230                  000103
3 VJ  1740101J24DEC2528MAR261234567 SGN22202220+0700  HAN00300030+0700  321                                                                                                 Y230                  000104
3 VJ  1750101J24DEC2528MAR261234567 HAN15101510+0700  SGN17201720+0700  321                                                                                                 Y230                  000105
3 VJ  1760101J25DEC2528MAR26 2 4 6  SGN23502350+0700  HAN02000200+0700  321                                                                                                 Y230                  000106
3 VJ  1770101J25DEC2528MAR26 2 4 6  HAN15501550+0700  SGN18001800+0700  321                                                                                                 Y230                  000107
3 VJ  1780101J24DEC2528MAR261234567 SGN15451545+0700  HAN17551755+0700  321                                                                                                 Y230                  000108
3 VJ  1790101J24DEC2528MAR261234567 HAN13051305+0700  SGN15151515+0700  321                                                                                                 Y230                  000109
3 VJ  1800101J24DEC2528MAR261234567 SGN13151315+0700  HAN15251525+0700  330                                                                                                 C12Y365               000110
3 VJ  1810101J24DEC2528MAR261234567 HAN16251625+0700  SGN18351835+0700  330                                                                                                 C12Y365               000111
3 VJ  1840101J24DEC2503JAN261234567 SGN11201120+0700  HAN13301330+0700  320                                                                                                 Y180                  000112
3 VJ  1840201J04JAN2604JAN26      7 SGN12151215+0700  HAN14251425+0700  321                                                                                                 Y230                  000113
3 VJ  1840301J05JAN2617JAN261234567 SGN11201120+0700  HAN13301330+0700  320                                                                                                 Y180                  000114
3 VJ  1840401J18JAN2618JAN26      7 SGN12151215+0700  HAN14251425+0700  321                                                                                                 Y230                  000115
3 VJ  1840501J19JAN2631JAN261234567 SGN11201120+0700  HAN13301330+0700  320                                                                                                 Y180                  000116
3 VJ  1840601J01FEB2601FEB26      7 SGN12151215+0700  HAN14251425+0700  321                                                                                                 Y230                  000117
3 VJ  1840701J02FEB2614FEB261234567 SGN11201120+0700  HAN13301330+0700  320                                                                                                 Y180                  000118
3 VJ  1840801J15FEB2615FEB26      7 SGN12151215+0700  HAN14251425+0700  321                                                                                                 Y230                  000119
3 VJ  1840901J16FEB2628FEB261234567 SGN11201120+0700  HAN13301330+0700  320                                                                                                 Y180                  000120
3 VJ  1841001J01MAR2601MAR26      7 SGN12151215+0700  HAN14251425+0700  321                                                                                                 Y230                  000121
3 VJ  1841101J02MAR2614MAR261234567 SGN11201120+0700  HAN13301330+0700  320                                                                                                 Y180                  000122
3 VJ  1841201J15MAR2615MAR26      7 SGN12151215+0700  HAN14251425+0700  321                                                                                                 Y230                  000123
3 VJ  1841301J16MAR2628MAR261234567 SGN11201120+0700  HAN13301330+0700  320                                                                                                 Y180                  000124
3 VJ  1850101J24DEC2503JAN261234567 HAN22302230+0700  SGN00400040+0700  320                                                                                                 Y180                  000125
3 VJ  1850201J04JAN2604JAN26      7 HAN22302230+0700  SGN00400040+0700  321                                                                                                 Y230                  000126
3 VJ  1850301J05JAN2617JAN261234567 HAN22302230+0700  SGN00400040+0700  320                                                                                                 Y180                  000127
3 VJ  1850401J18JAN2618JAN26      7 HAN22302230+0700  SGN00400040+0700  321                                                                                                 Y230                  000128
3 VJ  1850501J19JAN2631JAN261234567 HAN22302230+0700  SGN00400040+0700  320                                                                                                 Y180                  000129
3 VJ  1850601J01FEB2601FEB26      7 HAN22302230+0700  SGN00400040+0700  321                                                                                                 Y230                  000130
3 VJ  1850701J02FEB2614FEB261234567 HAN22302230+0700  SGN00400040+0700  320                                                                                                 Y180                  000131
3 VJ  1850801J15FEB2615FEB26      7 HAN22302230+0700  SGN00400040+0700  321                                                                                                 Y230                  000132
3 VJ  1850901J16FEB2628FEB261234567 HAN22302230+0700  SGN00400040+0700  320                                                                                                 Y180                  000133
3 VJ  1851001J01MAR2601MAR26      7 HAN22302230+0700  SGN00400040+0700  321                                                                                                 Y230                  000134
3 VJ  1851101J02MAR2614MAR261234567 HAN22302230+0700  SGN00400040+0700  320                                                                                                 Y180                  000135
3 VJ  1851201J15MAR2615MAR26      7 HAN22302230+0700  SGN00400040+0700  321                                                                                                 Y230                  000136
3 VJ  1851301J16MAR2628MAR261234567 HAN22302230+0700  SGN00400040+0700  320                                                                                                 Y180                  000137
3 VJ  1860101J24DEC2528MAR261234567 SGN16201620+0700  HAN18301830+0700  321                                                                                                 Y230                  000138
3 VJ  1910101J25DEC2528MAR26 2 4 6  HAN08400840+0700  SGN10501050+0700  321                                                                                                 Y230                  000139
3 VJ  1920101J25DEC2528MAR26 2 4 6  SGN05400540+0700  HAN07500750+0700  321                                                                                                 Y230                  000140
3 VJ  1930101J24DEC2528MAR261234567 HAN05150515+0700  SGN07250725+0700  321                                                                                                 Y230                  000141
3 VJ  1940101J24DEC2528MAR261234567 SGN08400840+0700  HAN10501050+0700  321                                                                                                 Y230                  000142
3 VJ  1990101J30DEC2524MAR26 2      HAN12301230+0700  SGN14401440+0700  330                                                                                                 C12Y365               000143
3 VJ  2060101J25DEC2528MAR26 2 4 6  SGN08150815+0700  TBB09250925+0700  321                                                                                                 Y230                  000144
3 VJ  2070101J23DEC2528MAR26 2 4 6  TBB09550955+0700  SGN11051105+0700  321                                                                                                 Y230                  000145
3 VJ  2400101J24DEC2528MAR261234567 SGN22102210+0700  THD00100010+0700  321                                                                                                 Y230                  000146
3 VJ  2410101J23DEC2528MAR261234567 THD00400040+0700  SGN02400240+0700  321                                                                                                 Y230                  000147
3 VJ  2420101J24DEC2528MAR261234567 SGN22402240+0700  THD00400040+0700  321                                                                                                 Y230                  000148
3 VJ  2430101J23DEC2528MAR261234567 THD01100110+0700  SGN03100310+0700  321                                                                                                 Y230                  000149
3 VJ  2440101J24DEC2528MAR261234567 SGN23152315+0700  THD01150115+0700  321                                                                                                 Y230                  000150
3 VJ  2450101J23DEC2528MAR261234567 THD01450145+0700  SGN03450345+0700  321                                                                                                 Y230                  000151
3 VJ  2460101J24DEC2528MAR261234567 SGN01200120+0700  THD03200320+0700  321                                                                                                 Y230                  000152
3 VJ  2470101J23DEC2528MAR261234567 THD03500350+0700  SGN05500550+0700  321                                                                                                 Y230                  000153
3 VJ  2480101J24DEC2528MAR261234567 SGN03100310+0700  THD05100510+0700  321                                                                                                 Y230                  000154
3 VJ  2490101J23DEC2528MAR261234567 THD05400540+0700  SGN07400740+0700  321                                                                                                 Y230                  000155
3 VJ  2500101J24DEC2528MAR261234567 SGN03400340+0700  THD05400540+0700  321                                                                                                 Y230                  000156
3 VJ  2510101J23DEC2528MAR261234567 THD06100610+0700  SGN08100810+0700  321                                                                                                 Y230                  000157
3 VJ  2520101J24DEC2528MAR261234567 SGN04150415+0700  THD06150615+0700  321                                                                                                 Y230                  000158
3 VJ  2530101J23DEC2528MAR261234567 THD06450645+0700  SGN08450845+0700  321                                                                                                 Y230                  000159
3 VJ  2540101J24DEC2528MAR261234567 SGN07100710+0700  THD09100910+0700  321                                                                                                 Y230                  000160
3 VJ  2550101J23DEC2528MAR261234567 THD14401440+0700  SGN16401640+0700  321                                                                                                 Y230                  000161
3 VJ  2560101J24DEC2528MAR261234567 SGN08100810+0700  THD10101010+0700  321                                                                                                 Y230                  000162
3 VJ  2570101J23DEC2528MAR261234567 THD15101510+0700  SGN17101710+0700  321                                                                                                 Y230                  000163
3 VJ  2580101J24DEC2528MAR261234567 SGN09100910+0700  THD11101110+0700  321                                                                                                 Y230                  000164
3 VJ  2590101J23DEC2528MAR261234567 THD11401140+0700  SGN13401340+0700  321                                                                                                 Y230                  000165
3 VJ  2600101J24DEC2528MAR261234567 SGN22302230+0700  VDH00050005+0700  321                                                                                                 Y230                  000166
3 VJ  2610101J23DEC2528MAR261234567 VDH00350035+0700  SGN02100210+0700  321                                                                                                 Y230                  000167
3 VJ  2620101J24DEC2528MAR261234567 SGN09300930+0700  VDH11051105+0700  321                                                                                                 Y230                  000168
3 VJ  2630101J23DEC2528MAR261234567 VDH11351135+0700  SGN13101310+0700  321                                                                                                 Y230                  000169
3 VJ  2700101J24DEC2528MAR261234567 SGN23152315+0700  HPH01150115+0700  320                                                                                                 Y180                  000170
3 VJ  2710101J24DEC2528MAR261234567 HPH01450145+0700  SGN03450345+0700  320                                                                                                 Y180                  000171
3 VJ  2720101J24DEC2528MAR261234567 SGN00450045+0700  HPH02450245+0700  321                                                                                                 Y230                  000172
3 VJ  2730101J24DEC2528MAR261234567 HPH03150315+0700  SGN05150515+0700  321                                                                                                 Y230                  000173
3 VJ  2740101J24DEC2528MAR261234567 SGN03500350+0700  HPH05500550+0700  321                                                                                                 Y230                  000174
3 VJ  2750101J24DEC2528MAR261234567 HPH06200620+0700  SGN08200820+0700  321                                                                                                 Y230                  000175
3 VJ  2780101J24DEC2528MAR261234567 SGN09250925+0700  HPH11251125+0700  321                                                                                                 Y230                  000176
3 VJ  2790101J24DEC2528MAR261234567 HPH11551155+0700  SGN13551355+0700  321                                                                                                 Y230                  000177
3 VJ  2800101J24DEC2528MAR261234567 SGN11151115+0700  HPH13151315+0700  321                                                                                                 Y230                  000178
3 VJ  2810101J24DEC2528MAR261234567 HPH13451345+0700  SGN15451545+0700  321                                                                                                 Y230                  000179
3 VJ  2820101J24DEC2528MAR261234567 SGN13001300+0700  HPH15001500+0700  321                                                                                                 Y230                  000180
3 VJ  2830101J24DEC2528MAR261234567 HPH15301530+0700  SGN17301730+0700  321                                                                                                 Y230                  000181
3 VJ  2840101J24DEC2528MAR261234567 SGN14251425+0700  HPH16251625+0700  321                                                                                                 Y230                  000182
3 VJ  2850101J24DEC2528MAR261234567 HPH16551655+0700  SGN18551855+0700  321                                                                                                 Y230                  000183
3 VJ  3010101J24DEC2528MAR26123456  HUI00250025+0700  SGN01500150+0700  321                                                                                                 Y230                  000184
3 VJ  3020101J24DEC2527MAR2612345 7 SGN22302230+0700  HUI23552355+0700  321                                                                                                 Y230                  000185
3 VJ  3030101J24DEC2528MAR261234567 HUI01550155+0700  SGN03200320+0700  321                                                                                                 Y230                  000186
3 VJ  3040101J24DEC2528MAR261234567 SGN00000000+0700  HUI01250125+0700  321                                                                                                 Y230                  000187
3 VJ  3050101J24DEC2527MAR261 3 5 7 HUI06100610+0700  SGN07350735+0700  320                                                                                                 Y180                  000188
3 VJ  3060101J24DEC2527MAR261 3 5 7 SGN04150415+0700  HUI05400540+0700  320                                                                                                 Y180                  000189
3 VJ  3060201J25DEC2528MAR26 2 4 6  SGN06550655+0700  HUI08200820+0700  320                                                                                                 Y180                  000190
3 VJ  3070101J24DEC2528MAR261234567 HUI07350735+0700  SGN09000900+0700  321                                                                                                 Y230                  000191
3 VJ  3080101J24DEC2528MAR261234567 SGN05400540+0700  HUI07050705+0700  321                                                                                                 Y230                  000192
3 VJ  3090101J24DEC2528MAR261234567 HUI11051105+0700  SGN12301230+0700  321                                                                                                 Y230                  000193
3 VJ  3100101J24DEC2528MAR261234567 SGN09100910+0700  HUI10351035+0700  321                                                                                                 Y230                  000194
3 VJ  3110101J24DEC2528MAR261234567 HUI14051405+0700  SGN15301530+0700  321                                                                                                 Y230                  000195
3 VJ  3120101J24DEC2528MAR261234567 SGN12101210+0700  HUI13351335+0700  321                                                                                                 Y230                  000196
3 VJ  3130101J24DEC2528MAR261234567 HUI16001600+0700  SGN17251725+0700  320                                                                                                 Y180                  000197
3 VJ  3140101J24DEC2528MAR261234567 SGN14051405+0700  HUI15301530+0700  320                                                                                                 Y180                  000198
3 VJ  3160101J24DEC2528MAR26123456  SGN11251125+0700  HUI12501250+0700  320                                                                                                 Y180                  000199
3 VJ  3200101J24DEC2528MAR261234567 PQC00050005+0700  SGN01100110+0700  321                                                                                                 Y230                  000200
3 VJ  3210101J24DEC2528MAR261234567 SGN22302230+0700  PQC23302330+0700  321                                                                                                 Y230                  000201
3 VJ  3220101J24DEC2528MAR261234567 PQC23352335+0700  SGN00400040+0700  320                                                                                                 Y180                  000202
3 VJ  3230101J24DEC2528MAR261234567 SGN01100110+0700  PQC02100210+0700  320                                                                                                 Y180                  000203
3 VJ  3240101J24DEC2528MAR261234567 PQC02050205+0700  SGN03100310+0700  321                                                                                                 Y230                  000204
3 VJ  3250101J24DEC2528MAR261234567 SGN00300030+0700  PQC01300130+0700  321                                                                                                 Y230                  000205
3 VJ  3260101J24DEC2528MAR26  34 67 PQC03100310+0700  SGN04150415+0700  330                                                                                                 C12Y365               000206
3 VJ  3270101J24DEC2528MAR26 23 56  SGN05100510+0700  PQC06100610+0700  330                                                                                                 C12Y365               000207
3 VJ  3290101J27DEC2528MAR26     6  SGN15251525+0700  PQC16251625+0700  320                                                                                                 Y180                  000208
3 VJ  3300101J24DEC2528MAR261234567 PQC10001000+0700  SGN11051105+0700  321                                                                                                 Y230                  000209
3 VJ  3310101J24DEC2528MAR261234567 SGN08250825+0700  PQC09250925+0700  321                                                                                                 Y230                  000210
3 VJ  3320101J24DEC2527MAR26  3 5 7 PQC08450845+0700  SGN09500950+0700  320                                                                                                 Y180                  000211
3 VJ  3320201J29DEC2523MAR261       PQC08450845+0700  SGN09500950+0700  321                                                                                                 Y230                  000212
3 VJ  3330101J24DEC2527MAR261 3 5   SGN14351435+0700  PQC15351535+0700  320                                                                                                 Y180                  000213
3 VJ  3330201J28DEC2522MAR26      7 SGN10201020+0700  PQC11201120+0700  320                                                                                                 Y180                  000214
3 VJ  3560101J24DEC2528MAR261234567 SGN22252225+0700  BMV23252325+0700  321                                                                                                 Y230                  000215
3 VJ  3570101J24DEC2528MAR261234567 BMV23552355+0700  SGN00550055+0700  321                                                                                                 Y230                  000216
3 VJ  3580101J30DEC2524MAR26 2      SGN08150815+0700  BMV09150915+0700  321                                                                                                 Y230                  000217
3 VJ  3590101J30DEC2524MAR26 2      BMV09450945+0700  SGN10451045+0700  321                                                                                                 Y230                  000218
3 VJ  3620101J24DEC2528MAR261234567 SGN11051105+0700  DLI12001200+0700  321                                                                                                 Y230                  000219
3 VJ  3630101J24DEC2528MAR261234567 DLI12301230+0700  SGN13251325+0700  321                                                                                                 Y230                  000220
3 VJ  3700101J24DEC2528MAR261234567 SGN22302230+0700  VCL23502350+0700  320                                                                                                 Y180                  000221
3 VJ  3710101J23DEC2528MAR261234567 VCL00200020+0700  SGN01400140+0700  320                                                                                                 Y180                  000222
3 VJ  3720101J24DEC2528MAR261234567 SGN04500450+0700  VCL06100610+0700  320                                                                                                 Y180                  000223
3 VJ  3730101J23DEC2528MAR261234567 VCL06400640+0700  SGN08000800+0700  320                                                                                                 Y180                  000224
3 VJ  3740101J24DEC2528MAR261234567 SGN08300830+0700  VCL09500950+0700  321                                                                                                 Y230                  000225
3 VJ  3750101J23DEC2528MAR261234567 VCL10201020+0700  SGN11401140+0700  321                                                                                                 Y230                  000226
3 VJ  3760101J24DEC2528MAR261234567 SGN10251025+0700  VCL11451145+0700  321                                                                                                 Y230                  000227
3 VJ  3770101J23DEC2528MAR261234567 VCL12151215+0700  SGN13351335+0700  321                                                                                                 Y230                  000228
3 VJ  3800101J24DEC2528MAR261234567 SGN01100110+0700  UIH02200220+0700  320                                                                                                 Y180                  000229
3 VJ  3810101J23DEC2528MAR261234567 UIH02500250+0700  SGN03550355+0700  320                                                                                                 Y180                  000230
3 VJ  3820101J24DEC2528MAR261234567 SGN07100710+0700  UIH08200820+0700  321                                                                                                 Y230                  000231
3 VJ  3830101J23DEC2528MAR261234567 UIH08500850+0700  SGN09550955+0700  321                                                                                                 Y230                  000232
3 VJ  3840101J24DEC2528MAR261234567 SGN10501050+0700  UIH12001200+0700  320                                                                                                 Y180                  000233
3 VJ  3850101J23DEC2528MAR261234567 UIH12301230+0700  SGN13351335+0700  320                                                                                                 Y180                  000234
3 VJ  3940101J24DEC2528MAR261234567 SGN01200120+0700  PXU02300230+0700  321                                                                                                 Y230                  000235
3 VJ  3950101J24DEC2528MAR261234567 PXU03000300+0700  SGN04100410+0700  321                                                                                                 Y230                  000236
3 VJ  3960101J24DEC2528MAR261234567 SGN09500950+0700  PXU11001100+0700  321                                                                                                 Y230                  000237
3 VJ  3970101J24DEC2528MAR261234567 PXU11301130+0700  SGN12401240+0700  321                                                                                                 Y230                  000238
3 VJ  4010101J24DEC2528MAR261234567 HAN23002300+0700  DLI00500050+0700  320                                                                                                 Y180                  000239
3 VJ  4020101J24DEC2528MAR261234567 DLI01200120+0700  HAN03100310+0700  320                                                                                                 Y180                  000240
3 VJ  4030101J24DEC2528MAR261234567 HAN03400340+0700  DLI05300530+0700  320                                                                                                 Y180                  000241
3 VJ  4040101J24DEC2528MAR261234567 DLI06000600+0700  HAN07500750+0700  320                                                                                                 Y180                  000242
3 VJ  4050101J24DEC2528MAR261234567 HAN08200820+0700  DLI10101010+0700  320                                                                                                 Y180                  000243
3 VJ  4060101J24DEC2528MAR261234567 DLI10401040+0700  HAN12301230+0700  320                                                                                                 Y180                  000244
3 VJ  4070101J24DEC2528MAR261234567 HAN04250425+0700  DLI06150615+0700  320                                                                                                 Y180                  000245
3 VJ  4080101J24DEC2528MAR261234567 DLI06450645+0700  HAN08350835+0700  320                                                                                                 Y180                  000246
3 VJ  4090101J24DEC2528MAR261234567 HAN09050905+0700  DLI10551055+0700  320                                                                                                 Y180                  000247
3 VJ  4100101J24DEC2528MAR261234567 DLI11251125+0700  HAN13151315+0700  320                                                                                                 Y180                  000248
3 VJ  4210101J24DEC2528MAR261234567 HAN02400240+0700  PXU04150415+0700  321                                                                                                 Y230                  000249
3 VJ  4220101J24DEC2528MAR261234567 PXU04450445+0700  HAN06200620+0700  321                                                                                                 Y230                  000250
3 VJ  4230101J24DEC2528MAR261234567 HAN11001100+0700  PXU12351235+0700  321                                                                                                 Y230                  000251
3 VJ  4240101J24DEC2528MAR261234567 PXU13051305+0700  HAN14401440+0700  321                                                                                                 Y230                  000252
3 VJ  4300101J23DEC2528MAR261234567 UIH02150215+0700  HAN03550355+0700  320                                                                                                 Y180                  000253
3 VJ  4310101J24DEC2528MAR261234567 HAN00100010+0700  UIH01450145+0700  320                                                                                                 Y180                  000254
3 VJ  4320101J23DEC2526MAR26 2 4  7 UIH12251225+0700  HAN14051405+0700  321                                                                                                 Y230                  000255
3 VJ  4320201J24DEC2528MAR261 3 56  UIH10251025+0700  HAN12051205+0700  321                                                                                                 Y230                  000256
3 VJ  4330101J24DEC2528MAR261 3 56  HAN08200820+0700  UIH09550955+0700  321                                                                                                 Y230                  000257
3 VJ  4330201J25DEC2526MAR26 2 4  7 HAN10201020+0700  UIH11551155+0700  321                                                                                                 Y230                  000258
3 VJ  4400101J24DEC2528MAR261234567 PQC02500250+0700  HAN04550455+0700  321                                                                                                 Y230                  000259
3 VJ  4410101J24DEC2528MAR261234567 HAN05250525+0700  PQC07300730+0700  321                                                                                                 Y230                  000260
3 VJ  4420101J24DEC2528MAR261234567 PQC01400140+0700  HAN03450345+0700  321                                                                                                 Y230                  000261
3 VJ  4430101J24DEC2528MAR261234567 HAN23002300+0700  PQC01050105+0700  321                                                                                                 Y230                  000262
3 VJ  4450101J24DEC2528MAR261234567 HAN10401040+0700  PQC12451245+0700  321                                                                                                 Y230                  000263
3 VJ  4460101J24DEC2528MAR261234567 PQC08050805+0700  HAN10101010+0700  321                                                                                                 Y230                  000264
3 VJ  4600101J23DEC2528MAR261234567 VCA01100110+0700  HAN03200320+0700  321                                                                                                 Y230                  000265
3 VJ  4610101J24DEC2528MAR261234567 HAN22302230+0700  VCA00400040+0700  321                                                                                                 Y230                  000266
3 VJ  4620101J23DEC2528MAR261234567 VCA06300630+0700  HAN08400840+0700  321                                                                                                 Y230                  000267
3 VJ  4630101J24DEC2528MAR261234567 HAN03500350+0700  VCA06000600+0700  321                                                                                                 Y230                  000268
3 VJ  4640101J23DEC2528MAR261234567 VCA13001300+0700  HAN15101510+0700  321                                                                                                 Y230                  000269
3 VJ  4650101J24DEC2528MAR261234567 HAN10201020+0700  VCA12301230+0700  321                                                                                                 Y230                  000270
3 VJ  4880101J23DEC2528MAR26 2 4 6  VCA11451145+0700  HPH13501350+0700  321                                                                                                 Y230                  000271
3 VJ  4890101J25DEC2528MAR26 2 4 6  HPH09100910+0700  VCA11151115+0700  321                                                                                                 Y230                  000272
3 VJ  4910101J24DEC2528MAR261234567 HAN23002300+0700  BMV00450045+0700  321                                                                                                 Y230                  000273
3 VJ  4920101J24DEC2528MAR261234567 BMV01150115+0700  HAN03000300+0700  321                                                                                                 Y230                  000274
3 VJ  4930101J25DEC2528MAR26 2 4 67 HAN11251125+0700  BMV13101310+0700  321                                                                                                 Y230                  000275
3 VJ  4940101J25DEC2528MAR26 2 4 67 BMV13401340+0700  HAN15251525+0700  321                                                                                                 Y230                  000276
3 VJ  5010101J24DEC2528MAR261234567 HAN13151315+0700  DAD14351435+0700  321                                                                                                 Y230                  000277
3 VJ  5020101J24DEC2528MAR261234567 DAD22452245+0700  HAN00050005+0700  321                                                                                                 Y230                  000278
3 VJ  5030101J24DEC2528MAR261234567 HAN23002300+0700  DAD00200020+0700  321                                                                                                 Y230                  000279
3 VJ  5040101J24DEC2528MAR261234567 DAD00500050+0700  HAN02100210+0700  321                                                                                                 Y230                  000280
3 VJ  5050101J24DEC2528MAR261234567 HAN04350435+0700  DAD05550555+0700  321                                                                                                 Y230                  000281
3 VJ  5060101J24DEC2528MAR261234567 DAD02450245+0700  HAN04050405+0700  321                                                                                                 Y230                  000282
3 VJ  5070101J24DEC2528MAR261234567 HAN03300330+0700  DAD04500450+0700  321                                                                                                 Y230                  000283
3 VJ  5080101J24DEC2528MAR261234567 DAD05200520+0700  HAN06400640+0700  321                                                                                                 Y230                  000284
3 VJ  5090101J24DEC2527MAR261 3 5   HAN08250825+0700  DAD09450945+0700  321                                                                                                 Y230                  000285
3 VJ  5090201J25DEC2528MAR26 2 4 67 HAN22252225+0700  DAD23452345+0700  321                                                                                                 Y230                  000286
3 VJ  5100101J24DEC2527MAR261 3 5 7 DAD00150015+0700  HAN01350135+0700  321                                                                                                 Y230                  000287
3 VJ  5110101J24DEC2528MAR261234567 HAN07200720+0700  DAD08400840+0700  321                                                                                                 Y230                  000288
3 VJ  5120101J24DEC2528MAR261234567 DAD09100910+0700  HAN10301030+0700  321                                                                                                 Y230                  000289
3 VJ  5130101J24DEC2528MAR261234567 HAN06350635+0700  DAD07550755+0700  321                                                                                                 Y230                  000290
3 VJ  5140101J24DEC2528MAR261234567 DAD08250825+0700  HAN09450945+0700  321                                                                                                 Y230                  000291
3 VJ  5150101J24DEC2528MAR261234567 HAN09250925+0700  DAD10451045+0700  321                                                                                                 Y230                  000292
3 VJ  5160101J24DEC2528MAR261234567 DAD11151115+0700  HAN12351235+0700  321                                                                                                 Y230                  000293
3 VJ  5170101J24DEC2528MAR261234567 HAN12051205+0700  DAD13251325+0700  321                                                                                                 Y230                  000294
3 VJ  5180101J24DEC2528MAR261234567 DAD13551355+0700  HAN15151515+0700  321                                                                                                 Y230                  000295
3 VJ  5190101J24DEC2528MAR261234567 HAN12451245+0700  DAD14051405+0700  321                                                                                                 Y230                  000296
3 VJ  5200101J24DEC2528MAR261234567 DAD14351435+0700  HAN15551555+0700  321                                                                                                 Y230                  000297
3 VJ  5210101J24DEC2528MAR261234567 HAN13501350+0700  DAD15101510+0700  321                                                                                                 Y230                  000298
3 VJ  5220101J24DEC2528MAR261234567 DAD15401540+0700  HAN17001700+0700  321                                                                                                 Y230                  000299
3 VJ  5230101J24DEC2528MAR261234567 HAN15451545+0700  DAD17051705+0700  320                                                                                                 Y180                  000300
3 VJ  5240101J24DEC2528MAR261234567 DAD23202320+0700  HAN00400040+0700  320                                                                                                 Y180                  000301
3 VJ  5270101J24DEC2527MAR26  3 5 7 HAN02300230+0700  DAD03500350+0700  321                                                                                                 Y230                  000302
3 VJ  5280101J24DEC2527MAR26  3 5 7 DAD04200420+0700  HAN05400540+0700  321                                                                                                 Y230                  000303
3 VJ  5660101J24DEC2528MAR261234567 HUI00450045+0700  HAN02000200+0700  321                                                                                                 Y230                  000304
3 VJ  5670101J24DEC2528MAR261234567 HAN23002300+0700  HUI00150015+0700  321                                                                                                 Y230                  000305
3 VJ  5680101J24DEC2528MAR261234567 HUI14001400+0700  HAN15151515+0700  320                                                                                                 Y180                  000306
3 VJ  5690101J24DEC2528MAR261234567 HAN12151215+0700  HUI13301330+0700  320                                                                                                 Y180                  000307
3 VJ  5800101J25DEC2527MAR26 2 45 7 CXR10151015+0700  DAD11201120+0700  321                                                                                                 Y230                  000308
3 VJ  5810101J25DEC2527MAR26 2 45 7 DAD11501150+0700  CXR12551255+0700  321                                                                                                 Y230                  000309
3 VJ  6000101J24DEC2528MAR261234567 SGN06250625+0700  CXR07350735+0700  321                                                                                                 Y230                  000310
3 VJ  6010101J24DEC2528MAR261234567 CXR08100810+0700  SGN09150915+0700  321                                                                                                 Y230                  000311
3 VJ  6020101J25DEC2526MAR26   4    SGN02300230+0700  CXR03400340+0700  330                                                                                                 C12Y365               000312
3 VJ  6030101J26DEC2527MAR26    5   CXR01000100+0700  SGN02050205+0700  330                                                                                                 C12Y365               000313
3 VJ  6040101J26DEC2527MAR26    5   SGN00450045+0700  CXR01550155+0700  321                                                                                                 Y230                  000314
3 VJ  6200101J24DEC2528MAR261234567 SGN16001600+0700  DAD17201720+0700  321                                                                                                 Y230                  000315
3 VJ  6210101J24DEC2528MAR261234567 DAD23252325+0700  SGN00500050+0700  321                                                                                                 Y230                  000316
3 VJ  6220101J24DEC2528MAR26123456  SGN00200020+0700  DAD01400140+0700  321                                                                                                 Y230                  000317
3 VJ  6220201J28DEC2522MAR26      7 SGN00250025+0700  DAD01450145+0700  320                                                                                                 Y180                  000318
3 VJ  6230101J24DEC2527MAR2612345 7 DAD22252225+0700  SGN23502350+0700  321                                                                                                 Y230                  000319
3 VJ  6230201J27DEC2521MAR26     6  DAD00050005+0700  SGN01300130+0700  321                                                                                                 Y230                  000320
3 VJ  6240101J24DEC2527MAR26 23 5 7 SGN01200120+0700  DAD02400240+0700  321                                                                                                 Y230                  000321
3 VJ  6240201J25DEC2528MAR261  4 6  SGN05300530+0700  DAD06500650+0700  320                                                                                                 Y180                  000322
3 VJ  6250101J24DEC2527MAR26 23 5 7 DAD03100310+0700  SGN04350435+0700  321                                                                                                 Y230                  000323
3 VJ  6260101J24DEC2528MAR261234567 SGN02250225+0700  DAD03450345+0700  321                                                                                                 Y230                  000324
3 VJ  6270101J24DEC2528MAR261234567 DAD04150415+0700  SGN05400540+0700  321                                                                                                 Y230                  000325
3 VJ  6280101J24DEC2531DEC251 34567 SGN02450245+0700  DAD04050405+0700  321                                                                                                 Y230                  000326
3 VJ  6280201J30DEC2503JAN26 2 4 6  SGN02450245+0700  DAD04050405+0700  320                                                                                                 Y180                  000327
3 VJ  6280301J02JAN2609JAN2612345 7 SGN02450245+0700  DAD04050405+0700  321                                                                                                 Y230                  000328
3 VJ  6280401J10JAN2616JAN261 3 567 SGN02450245+0700  DAD04050405+0700  321                                                                                                 Y230                  000329
3 VJ  6280501J13JAN2617JAN26 2 4 6  SGN02450245+0700  DAD04050405+0700  320                                                                                                 Y180                  000330
3 VJ  6280601J18JAN2626JAN261234567 SGN02450245+0700  DAD04050405+0700  321                                                                                                 Y230                  000331
3 VJ  6280701J27JAN2631JAN26 2 4 6  SGN02450245+0700  DAD04050405+0700  320                                                                                                 Y180                  000332
3 VJ  6280801J28JAN2604FEB26123 5 7 SGN02450245+0700  DAD04050405+0700  321                                                                                                 Y230                  000333
3 VJ  6280901J05FEB2611FEB261 34567 SGN02450245+0700  DAD04050405+0700  321                                                                                                 Y230                  000334
3 VJ  6281001J10FEB2614FEB26 2 4 6  SGN02450245+0700  DAD04050405+0700  320                                                                                                 Y180                  000335
3 VJ  6281101J13FEB2620FEB2612345 7 SGN02450245+0700  DAD04050405+0700  321                                                                                                 Y230                  000336
3 VJ  6281201J21FEB2627FEB261 3 567 SGN02450245+0700  DAD04050405+0700  321                                                                                                 Y230                  000337
3 VJ  6281301J24FEB2628FEB26 2 4 6  SGN02450245+0700  DAD04050405+0700  320                                                                                                 Y180                  000338
3 VJ  6281401J01MAR2609MAR261234567 SGN02450245+0700  DAD04050405+0700  321                                                                                                 Y230                  000339
3 VJ  6281501J10MAR2614MAR26 2 4 6  SGN02450245+0700  DAD04050405+0700  320                                                                                                 Y180                  000340
3 VJ  6281601J11MAR2618MAR26123 5 7 SGN02450245+0700  DAD04050405+0700  321                                                                                                 Y230                  000341
3 VJ  6281701J19MAR2625MAR261 34567 SGN02450245+0700  DAD04050405+0700  321                                                                                                 Y230                  000342
3 VJ  6281801J24MAR2628MAR26 2 4 6  SGN02450245+0700  DAD04050405+0700  320                                                                                                 Y180                  000343
3 VJ  6281901J27MAR2627MAR26    5   SGN02450245+0700  DAD04050405+0700  321                                                                                                 Y230                  000344
3 VJ  6290101J24DEC2531DEC25  34567 DAD00500050+0700  SGN02150215+0700  321                                                                                                 Y230                  000345
3 VJ  6290201J30DEC2503JAN26 2 4 6  DAD00500050+0700  SGN02150215+0700  320                                                                                                 Y180                  000346
3 VJ  6290301J02JAN2609JAN26 2345 7 DAD00500050+0700  SGN02150215+0700  321                                                                                                 Y230                  000347
3 VJ  6290401J10JAN2616JAN26  3 567 DAD00500050+0700  SGN02150215+0700  321                                                                                                 Y230                  000348
3 VJ  6290501J13JAN2617JAN26 2 4 6  DAD00500050+0700  SGN02150215+0700  320                                                                                                 Y180                  000349
3 VJ  6290601J18JAN2625JAN26 234567 DAD00500050+0700  SGN02150215+0700  321                                                                                                 Y230                  000350
3 VJ  6290701J27JAN2631JAN26 2 4 6  DAD00500050+0700  SGN02150215+0700  320                                                                                                 Y180                  000351
3 VJ  6290801J28JAN2604FEB26 23 5 7 DAD00500050+0700  SGN02150215+0700  321                                                                                                 Y230                  000352
3 VJ  6290901J05FEB2611FEB26  34567 DAD00500050+0700  SGN02150215+0700  321                                                                                                 Y230                  000353
3 VJ  6291001J10FEB2614FEB26 2 4 6  DAD00500050+0700  SGN02150215+0700  320                                                                                                 Y180                  000354
3 VJ  6291101J13FEB2620FEB26 2345 7 DAD00500050+0700  SGN02150215+0700  321                                                                                                 Y230                  000355
3 VJ  6291201J21FEB2627FEB26  3 567 DAD00500050+0700  SGN02150215+0700  321                                                                                                 Y230                  000356
3 VJ  6291301J24FEB2628FEB26 2 4 6  DAD00500050+0700  SGN02150215+0700  320                                                                                                 Y180                  000357
3 VJ  6291401J01MAR2608MAR26 234567 DAD00500050+0700  SGN02150215+0700  321                                                                                                 Y230                  000358
3 VJ  6291501J10MAR2614MAR26 2 4 6  DAD00500050+0700  SGN02150215+0700  320                                                                                                 Y180                  000359
3 VJ  6291601J11MAR2618MAR26 23 5 7 DAD00500050+0700  SGN02150215+0700  321                                                                                                 Y230                  000360
3 VJ  6291701J19MAR2625MAR26  34567 DAD00500050+0700  SGN02150215+0700  321                                                                                                 Y230                  000361
3 VJ  6291801J24MAR2628MAR26 2 4 6  DAD00500050+0700  SGN02150215+0700  320                                                                                                 Y180                  000362
3 VJ  6291901J27MAR2627MAR26    5   DAD00500050+0700  SGN02150215+0700  321                                                                                                 Y230                  000363
3 VJ  6300101J24DEC2528MAR261234567 SGN06100610+0700  DAD07300730+0700  321                                                                                                 Y230                  000364
3 VJ  6310101J24DEC2528MAR261234567 DAD08000800+0700  SGN09250925+0700  321                                                                                                 Y230                  000365
3 VJ  6320101J24DEC2528MAR261234567 SGN07000700+0700  DAD08200820+0700  321                                                                                                 Y230                  000366
3 VJ  6330101J24DEC2528MAR261234567 DAD05050505+0700  SGN06300630+0700  321                                                                                                 Y230                  000367
3 VJ  6340101J24DEC2528MAR261234567 SGN04400440+0700  DAD06000600+0700  321                                                                                                 Y230                  000368
3 VJ  6350101J24DEC2528MAR261234567 DAD06300630+0700  SGN07550755+0700  321                                                                                                 Y230                  000369
3 VJ  6360101J24DEC2528MAR261234567 SGN22302230+0700  DAD23502350+0700  321                                                                                                 Y230                  000370
3 VJ  6370101J24DEC2528MAR261234567 DAD16151615+0700  SGN17401740+0700  321                                                                                                 Y230                  000371
3 VJ  6380101J24DEC2528MAR261234567 SGN08250825+0700  DAD09450945+0700  321                                                                                                 Y230                  000372
3 VJ  6390101J24DEC2528MAR261234567 DAD10151015+0700  SGN11401140+0700  321                                                                                                 Y230                  000373
3 VJ  6400101J24DEC2528MAR261234567 SGN14251425+0700  DAD15451545+0700  321                                                                                                 Y230                  000374
3 VJ  6410101J24DEC2528MAR261234567 DAD12301230+0700  SGN13551355+0700  321                                                                                                 Y230                  000375
3 VJ  6460101J24DEC2528MAR261234567 SGN13401340+0700  DAD15001500+0700  321                                                                                                 Y230                  000376
3 VJ  6470101J24DEC2528MAR261234567 DAD15301530+0700  SGN16551655+0700  321                                                                                                 Y230                  000377
3 VJ  6480101J24DEC2528MAR261234567 SGN11151115+0700  DAD12351235+0700  321                                                                                                 Y230                  000378
3 VJ  6490101J24DEC2528MAR261234567 DAD13051305+0700  SGN14301430+0700  321                                                                                                 Y230                  000379
3 VJ  6570101J28DEC2528DEC25      7 DAD14301430+0700  SGN15551555+0700  320                                                                                                 Y180                  000380
3 VJ  6570201J04JAN2604JAN26      7 DAD14301430+0700  SGN15551555+0700  321                                                                                                 Y230                  000381
3 VJ  6570301J11JAN2611JAN26      7 DAD14301430+0700  SGN15551555+0700  320                                                                                                 Y180                  000382
3 VJ  6570401J18JAN2618JAN26      7 DAD14301430+0700  SGN15551555+0700  321                                                                                                 Y230                  000383
3 VJ  6570501J25JAN2625JAN26      7 DAD14301430+0700  SGN15551555+0700  320                                                                                                 Y180                  000384
3 VJ  6570601J01FEB2601FEB26      7 DAD14301430+0700  SGN15551555+0700  321                                                                                                 Y230                  000385
3 VJ  6570701J08FEB2608FEB26      7 DAD14301430+0700  SGN15551555+0700  320                                                                                                 Y180                  000386
3 VJ  6570801J15FEB2615FEB26      7 DAD14301430+0700  SGN15551555+0700  321                                                                                                 Y230                  000387
3 VJ  6570901J22FEB2622FEB26      7 DAD14301430+0700  SGN15551555+0700  320                                                                                                 Y180                  000388
3 VJ  6571001J01MAR2601MAR26      7 DAD14301430+0700  SGN15551555+0700  321                                                                                                 Y230                  000389
3 VJ  6571101J08MAR2608MAR26      7 DAD14301430+0700  SGN15551555+0700  320                                                                                                 Y180                  000390
3 VJ  6571201J15MAR2615MAR26      7 DAD14301430+0700  SGN15551555+0700  321                                                                                                 Y230                  000391
3 VJ  6571301J22MAR2622MAR26      7 DAD14301430+0700  SGN15551555+0700  320                                                                                                 Y180                  000392
3 VJ  6700101J25DEC2528MAR26 2 4 6  BMV07000700+0700  HPH08400840+0700  321                                                                                                 Y230                  000393
3 VJ  6710101J25DEC2528MAR26 2 4 6  HPH04500450+0700  BMV06300630+0700  321                                                                                                 Y230                  000394
3 VJ  6920101J24DEC2527MAR261 3 5 7 DLI11201120+0700  HPH13051305+0700  321                                                                                                 Y230                  000395
3 VJ  6930101J24DEC2527MAR261 3 5 7 HPH09050905+0700  DLI10501050+0700  321                                                                                                 Y230                  000396
3 VJ  7030101J24DEC2528MAR261234567 DAD06250625+0700  VCA07550755+0700  321                                                                                                 Y230                  000397
3 VJ  7040101J23DEC2528MAR261234567 VCA08250825+0700  DAD09550955+0700  321                                                                                                 Y230                  000398
3 VJ  7140101J25DEC2528MAR26 2 456  DLI12201220+0700  THD14001400+0700  321                                                                                                 Y230                  000399
3 VJ  7150101J23DEC2528MAR26 2 456  THD10101010+0700  DLI11501150+0700  321                                                                                                 Y230                  000400
3 VJ  7180101J24DEC2528DEC25  34567 PQC03450345+0700  DAD05300530+0700  320                                                                                                 Y180                  000401
3 VJ  7180201J29DEC2504JAN261234567 PQC03450345+0700  DAD05300530+0700  321                                                                                                 Y230                  000402
3 VJ  7180301J05JAN2611JAN261234567 PQC03450345+0700  DAD05300530+0700  320                                                                                                 Y180                  000403
3 VJ  7180401J12JAN2618JAN261234567 PQC03450345+0700  DAD05300530+0700  321                                                                                                 Y230                  000404
3 VJ  7180501J19JAN2625JAN261234567 PQC03450345+0700  DAD05300530+0700  320                                                                                                 Y180                  000405
3 VJ  7180601J26JAN2601FEB261234567 PQC03450345+0700  DAD05300530+0700  321                                                                                                 Y230                  000406
3 VJ  7180701J02FEB2608FEB261234567 PQC03450345+0700  DAD05300530+0700  320                                                                                                 Y180                  000407
3 VJ  7180801J09FEB2615FEB261234567 PQC03450345+0700  DAD05300530+0700  321                                                                                                 Y230                  000408
3 VJ  7180901J16FEB2622FEB261234567 PQC03450345+0700  DAD05300530+0700  320                                                                                                 Y180                  000409
3 VJ  7181001J23FEB2601MAR261234567 PQC03450345+0700  DAD05300530+0700  321                                                                                                 Y230                  000410
3 VJ  7181101J02MAR2608MAR261234567 PQC03450345+0700  DAD05300530+0700  320                                                                                                 Y180                  000411
3 VJ  7181201J09MAR2615MAR261234567 PQC03450345+0700  DAD05300530+0700  321                                                                                                 Y230                  000412
3 VJ  7181301J16MAR2622MAR261234567 PQC03450345+0700  DAD05300530+0700  320                                                                                                 Y180                  000413
3 VJ  7181401J23MAR2628MAR26123456  PQC03450345+0700  DAD05300530+0700  321                                                                                                 Y230                  000414
3 VJ  7190101J24DEC2528DEC25  34567 DAD01250125+0700  PQC03100310+0700  320                                                                                                 Y180                  000415
3 VJ  7190201J29DEC2504JAN261234567 DAD01250125+0700  PQC03100310+0700  321                                                                                                 Y230                  000416
3 VJ  7190301J05JAN2611JAN261234567 DAD01250125+0700  PQC03100310+0700  320                                                                                                 Y180                  000417
3 VJ  7190401J12JAN2618JAN261234567 DAD01250125+0700  PQC03100310+0700  321                                                                                                 Y230                  000418
3 VJ  7190501J19JAN2625JAN261234567 DAD01250125+0700  PQC03100310+0700  320                                                                                                 Y180                  000419
3 VJ  7190601J26JAN2601FEB261234567 DAD01250125+0700  PQC03100310+0700  321                                                                                                 Y230                  000420
3 VJ  7190701J02FEB2608FEB261234567 DAD01250125+0700  PQC03100310+0700  320                                                                                                 Y180                  000421
3 VJ  7190801J09FEB2615FEB261234567 DAD01250125+0700  PQC03100310+0700  321                                                                                                 Y230                  000422
3 VJ  7190901J16FEB2622FEB261234567 DAD01250125+0700  PQC03100310+0700  320                                                                                                 Y180                  000423
3 VJ  7191001J23FEB2601MAR261234567 DAD01250125+0700  PQC03100310+0700  321                                                                                                 Y230                  000424
3 VJ  7191101J02MAR2608MAR261234567 DAD01250125+0700  PQC03100310+0700  320                                                                                                 Y180                  000425
3 VJ  7191201J09MAR2615MAR261234567 DAD01250125+0700  PQC03100310+0700  321                                                                                                 Y230                  000426
3 VJ  7191301J16MAR2622MAR261234567 DAD01250125+0700  PQC03100310+0700  320                                                                                                 Y180                  000427
3 VJ  7191401J23MAR2628MAR26123456  DAD01250125+0700  PQC03100310+0700  321                                                                                                 Y230                  000428
3 VJ  7200101J24DEC2528MAR261234567 DAD03200320+0700  HPH04400440+0700  321                                                                                                 Y230                  000429
3 VJ  7210101J24DEC2528MAR261234567 HPH05100510+0700  DAD06250625+0700  321                                                                                                 Y230                  000430
3 VJ  7280101J25DEC2527MAR2612 45 7 DLI12001200+0700  DAD13051305+0700  321                                                                                                 Y230                  000431
3 VJ  7290101J25DEC2527MAR2612 45 7 DAD10251025+0700  DLI11301130+0700  321                                                                                                 Y230                  000432
3 VJ  7300101J24DEC2528MAR261234567 CXR03550355+0700  HPH05400540+0700  321                                                                                                 Y230                  000433
3 VJ  7310101J24DEC2528MAR261234567 HPH06100610+0700  CXR07550755+0700  321                                                                                                 Y230                  000434
3 VJ  7440101J24DEC2528MAR261 3 567 BMV12551255+0700  THD14401440+0700  321                                                                                                 Y230                  000435
3 VJ  7450101J24DEC2528MAR261 3 567 THD10401040+0700  BMV12251225+0700  321                                                                                                 Y230                  000436
3 VJ  7610101J24DEC2527MAR261 3 5 7 HPH05250525+0700  PQC07300730+0700  320                                                                                                 Y180                  000437
3 VJ  7620101J24DEC2527MAR261 3 5 7 PQC02500250+0700  HPH04550455+0700  320                                                                                                 Y180                  000438
3 VJ  7700101J24DEC2528MAR261234567 CXR02550255+0700  HAN04450445+0700  321                                                                                                 Y230                  000439
3 VJ  7710101J24DEC2528MAR261234567 HAN00350035+0700  CXR02250225+0700  321                                                                                                 Y230                  000440
3 VJ  7720101J24DEC2528MAR261 3  6  CXR01500150+0700  HAN03400340+0700  330                                                                                                 C12Y365               000441
3 VJ  7720201J25DEC2527MAR26 2 45 7 CXR01350135+0700  HAN03250325+0700  320                                                                                                 Y180                  000442
3 VJ  7730101J24DEC2528MAR26  3 56  HAN03550355+0700  CXR05450545+0700  320                                                                                                 Y180                  000443
3 VJ  7730201J28DEC2528DEC25      7 HAN01150115+0700  CXR03050305+0700  330                                                                                                 C12Y365               000444
3 VJ  7730301J29DEC2523MAR261       HAN23002300+0700  CXR00500050+0700  330                                                                                                 C12Y365               000445
3 VJ  7730401J04JAN2604JAN26      7 HAN01350135+0700  CXR03250325+0700  330                                                                                                 C12Y365               000446
3 VJ  7730501J11JAN2611JAN26      7 HAN01150115+0700  CXR03050305+0700  330                                                                                                 C12Y365               000447
3 VJ  7730601J18JAN2618JAN26      7 HAN01350135+0700  CXR03250325+0700  330                                                                                                 C12Y365               000448
3 VJ  7730701J25JAN2625JAN26      7 HAN01150115+0700  CXR03050305+0700  330                                                                                                 C12Y365               000449
3 VJ  7730801J01FEB2601FEB26      7 HAN01350135+0700  CXR03250325+0700  330                                                                                                 C12Y365               000450
3 VJ  7730901J08FEB2608FEB26      7 HAN01150115+0700  CXR03050305+0700  330                                                                                                 C12Y365               000451
3 VJ  7731001J15FEB2615FEB26      7 HAN01350135+0700  CXR03250325+0700  330                                                                                                 C12Y365               000452
3 VJ  7731101J22FEB2622FEB26      7 HAN01150115+0700  CXR03050305+0700  330                                                                                                 C12Y365               000453
3 VJ  7731201J01MAR2601MAR26      7 HAN01350135+0700  CXR03250325+0700  330                                                                                                 C12Y365               000454
3 VJ  7731301J08MAR2608MAR26      7 HAN01150115+0700  CXR03050305+0700  330                                                                                                 C12Y365               000455
3 VJ  7731401J15MAR2615MAR26      7 HAN01350135+0700  CXR03250325+0700  330                                                                                                 C12Y365               000456
3 VJ  7731501J22MAR2622MAR26      7 HAN01150115+0700  CXR03050305+0700  330                                                                                                 C12Y365               000457
3 VJ  7740101J24DEC2528MAR261 3 56  CXR06000600+0700  HAN07500750+0700  321                                                                                                 Y230                  000458
3 VJ  7740201J25DEC2526MAR26 2 4  7 HAN06000600+0700  CXR07500750+0700  321                                                                                                 Y230                  000459
3 VJ  7750101J24DEC2528MAR261234567 CXR03400340+0700  HAN05300530+0700  321                                                                                                 Y230                  000460
3 VJ  7750201J25DEC2528MAR26 2 4 6  HAN08400840+0700  CXR10301030+0700  320                                                                                                 Y180                  000461
3 VJ  7760101J25DEC2528MAR26 2 4 6  CXR08200820+0700  HAN10101010+0700  321                                                                                                 Y230                  000462
3 VJ  7770101J25DEC2528MAR26 2 4 6  HAN10401040+0700  CXR12301230+0700  321                                                                                                 Y230                  000463
3 VJ  7780101J24DEC2528MAR261234567 CXR10301030+0700  HAN12201220+0700  321                                                                                                 Y230                  000464
3 VJ  7790101J24DEC2528MAR261234567 HAN08100810+0700  CXR10001000+0700  321                                                                                                 Y230                  000465
3 VJ  7830101J25DEC2526MAR26   4  7 HAN02000200+0700  CXR03500350+0700  330                                                                                                 C12Y365               000466
3 VJ  8000101J24DEC2528MAR261234567 BKK08450845+0700  SGN10151015+0700  321                                                                                                 Y230                  000467
3 VJ  8010101J24DEC2528MAR261234567 SGN02150215+0700  BKK03450345+0700  321                                                                                                 Y230                  000468
3 VJ  8020101J24DEC2528MAR261234567 BKK04450445+0700  SGN06100610+0700  321                                                                                                 Y230                  000469
3 VJ  8030101J24DEC2528MAR261234567 SGN04300430+0700  BKK06000600+0700  321                                                                                                 Y230                  000470
3 VJ  8040101J24DEC2528MAR261234567 BKK07000700+0700  SGN08300830+0700  321                                                                                                 Y230                  000471
3 VJ  8050101J24DEC2528MAR261234567 SGN10351035+0700  BKK12051205+0700  321                                                                                                 Y230                  000472
3 VJ  8060101J24DEC2528MAR261234567 BKK13051305+0700  SGN14351435+0700  321                                                                                                 Y230                  000473
3 VJ  8070101J24DEC2528MAR261234567 SGN06150615+0700  BKK07450745+0700  321                                                                                                 Y230                  000474
3 VJ  8080101J24DEC2528MAR261234567 HKT07100710+0700  SGN09050905+0700  321                                                                                                 Y230                  000475
3 VJ  8090101J24DEC2528MAR261234567 SGN04150415+0700  HKT06100610+0700  321                                                                                                 Y230                  000476
3 VJ  8110101J24DEC2528MAR26 234567 SGN01500150+0700  SIN04050405+0800  321                                                                                                 Y230                  000477
3 VJ  8110201J29DEC2523MAR261       SGN01500150+0700  SIN04050405+0800  320                                                                                                 Y180                  000478
3 VJ  8120101J23DEC2528MAR26 2 4 6  SIN05050505+0800  SGN07150715+0700  321                                                                                                 Y230                  000479
3 VJ  8120201J24DEC2527MAR26  3 5 7 SIN11301130+0800  SGN13351335+0700  321                                                                                                 Y230                  000480
3 VJ  8120301J29DEC2523MAR261       SIN11301130+0800  SGN13351335+0700  320                                                                                                 Y180                  000481
3 VJ  8130101N24DEC2531DEC251 3456  SGN23502350+0700  SIN02150215+0800  321                                                                                                 Y230                  000482
3 VJ  8130201N28DEC2503JAN26 2 4 67 SGN23502350+0700  SIN02150215+0800  320                                                                                                 Y180                  000483
3 VJ  8130301N02JAN2609JAN2612345 7 SGN23502350+0700  SIN02150215+0800  321                                                                                                 Y230                  000484
3 VJ  8130401N10JAN2616JAN261 3 56  SGN23502350+0700  SIN02150215+0800  321                                                                                                 Y230                  000485
3 VJ  8130501N11JAN2617JAN26 2 4 67 SGN23502350+0700  SIN02150215+0800  320                                                                                                 Y180                  000486
3 VJ  8130601N18JAN2624JAN261234567 SGN23502350+0700  SIN02150215+0800  321                                                                                                 Y230                  000487
3 VJ  8130701N25JAN2631JAN26 2 4 67 SGN23502350+0700  SIN02150215+0800  320                                                                                                 Y180                  000488
3 VJ  8130801N26JAN2602FEB261 3 5 7 SGN23502350+0700  SIN02150215+0800  321                                                                                                 Y230                  000489
